:03000000020D08E6
:0C0D0800787FE4F6D8FD75815A020D4F8B
:100BC2002A2A2A2A2A2A2A2A2A2A2A2A74656E6E76
:100BD20069732A2A2A2A2A2A2A2A2A2A2A2A2A2AEB
:100BE2002A0D0A002A2A7072657373203120696601
:100BF20020706C6179657220312077696E73207084
:100C02006F696E742A2A0D0A002A2A70726573733C
:100C1200203220696620706C6179657220322077FB
:100C2200696E7320706F696E742A2A0D0A002D0096
:100C320020004164202D203430003430202D20410A
:100C420064003430202D20343000706C617965727C
:100C5200203120776F6E00706C61796572203220CE
:040C6200776F6E003A
:100DFF00C101C1000621000000000000024C0000EC
:100E0F00034E000000012700023E000002400000D8
:100E1F000642000000000000022800000448000005
:0C0E2F000000082A0000000F001E002830
:100E3C00E4F5A0C282C280C2817F38FE120EF1128C
:100E4C000EC97F067E00120EF1120EC97F0C7E00B9
:100E5C00120EF1120EC97F017E00120EF1120EC994
:070E6C007F807E00020EF101
:040EC9007F047E0024
:100ECD00E4FDFCC3ED9FEC9E5015E4FBFA0BBB005B
:0F0EDD00010ABA01F8BB7EF50DBD00010C80E4DF
:010EEC0022E3
:100B05007FC0120EF1E54925E0242AF8E6FE08E645
:070B1500FF7B007A0079214B
:100B1C008E088F098B0A8A0B890C7C277D10120C8E
:100B2C00B3EF2430120C7FAE08AF097C277D101276
:100B3C000CB37E037FE8CFCDCFCECCCE120CB3EF6F
:100B4C002430AB0AAA0BA90C900001120C91AE0830
:100B5C00AF097C037DE8120CB37E007F64CFCDCF50
:100B6C00CECCCE120CB3EF2430AB0AAA0BA90C904E
:100B7C000002120C91AE08AF097C007D64120CB31C
:100B8C007E007F0ACFCDCFCECCCE120CB3EF24306B
:100B9C00AB0AAA0BA90C900003120C91AE08AF097A
:100BAC007C007D0A120CB3ED2430AB0AAA0BA90C05
:060BBC00900004020C9100
:040EED007FC07E0044
:100EF100C280C281D2828FA07F0A7E00120ECDC233
:020F010082224A
:100F0300D280C281D2828FA07F0A7E00120ECDC210
:020F1300822238
:0C0E730085244E85254F7B007A00794EC7
:100E7F008B088A09890AAB08AA09A90A120C6660AD
:100E8F0013050AE50A7002050914F9120C66FF1220
:050E9F000F0380E222B8
:100F1500758920758DCC759850D28ED2ACD2AF2202
:080F3F008F993001FDC201226F
:100EA4008B088A09890AAB08AA09A90A120C666088
:100EB40013050AE50A7002050914F9120C66FF12FB
:050EC4000F3F80E22257
:090F3500E4FF3000FDC200AF9999
:010F3E002290
:03002300020F25A4
:100F2500309905C299D20132309804C298D2003264
:10080000120E3C120F157BFF7A0B79C2120EA47BDD
:10081000FF7A0B79E6120EA47BFF7A0C790B120E8D
:10082000A47FE87E03120ECDE4F551F552E4F553B2
:10083000F554E55225E025E02432F8E55425E0287A
:10084000F8E4F608F60554E55470020553640245D1
:100850005370DF0552E55270020551640345517033
:10086000CCE4F557F558AF58EF25E02442F8E6FC04
:1008700008E64C600302098EEF25E025E02434F8F9
:10088000E6FE08E6C39406EE6480948050047F017F
:1008900080027F00E55825E025E02432F8E6FC08D8
:1008A000E6C39406EC6480948050047E0180027E4E
:1008B00000EE5F6003020988AF58EF25E025E024D1
:1008C00034F8E6FC08E6FDEF25E025E02432F8E602
:1008D000FE08E6FFD39DEC6480F8EE64809840410A
:1008E000E55825E025E02434F8E6FC08E6FDC3EFF2
:1008F0009DFFEE9CFED3EF9401EE64809480401F38
:10090000E55825E02442F87600087601053FE53FEA
:100910007002053E0529E5297069052802086680F0
:1009200067AF58EF25E025E02434F8E6FC08E6FD43
:10093000EF25E025E02432F8E6FE08E6FFC39DEC53
:100940006480F8EE648098503FE55825E025E02467
:1009500034F8E6FC08E6C39FFFEC9EFED3EF94015B
:10096000EE64809480401FE55825E02442F876002C
:100970000876010541E541700205400529E5297029
:1009800002052802086680001209D9020866E53FC0
:100990006402453E700E7FC0FE120EF17BFF7A0CA2
:1009A000794C8014E5416402454070167FC0FE1208
:1009B0000EF17BFF7A0C7959120E7F7F887E13022D
:1009C0000ECD0558E55870020557C39403E55764EA
:0909D000809480500302086622A5
:100D9400120E3C7F807E00120EF1E4F555F556D319
:100DA400E5569529E5286480F8E555648098504A0D
:100DB400E55625E025E02432120B1085254C7B00F6
:100DC4007A00794C120E7F7BFF7A0C7930120E7FF9
:100DD400E55625E025E02434120B1085254C7B00D4
:100DE4007A00794C120E7F7BFF7A0C7932120E7FD7
:0B0DF4000556E55670A9055580A522A4
:1009D900120F358F27E527B4310A0549E54970110A
:1009E9000548800DE527B43208054BE54B70020533
:1009F9004AD3E5499403E54894005032E54B940302
:100A0900E54A94005028120D947E00120B05120E2F
:100A1900737BFF7A0C7930120E7FE54B120B0C8534
:100A2900244E85254F7B007A00794E020AD6D3E5FC
:100A390049954BE548954A4034E549954BFFE548CA
:100A4900954AFED3EF9401EE94004012E55825E053
:100A590025E02432F80806E618704006803D120D9C
:100A690094120EED7BFF7A0C7934020AD6D3E54B4A
:100A79009549E54A9548405BE54B9549FFE54A9517
:100A890048FED3EF9401EE94004036E55825E02561
:100A9900E02434F80806E618700106120D94E4F50E
:100AA90048F549F54AF54BFE120B05120E737BFF0B
:100AB9007A0C7930120E7FE54B120B0C120E7380F3
:100AC90034120D94120EED7BFF7A0C793C120E7FD5
:100AD9000209D9120D94120EED7BFF7A0C7944129A
:100AE9000E7FE549154970021548E54B154B700213
:0C0AF900154A0209D97F647E00020ECD70
:100D1400020800E493A3F8E493A34003F68001F2ED
:100D240008DFF48029E493A3F85407240CC8C333E0
:100D3400C4540F4420C8834004F456800146F6DFAF
:100D4400E4800B0102040810204080900DFFE47E33
:100D5400019360BCA3FF543F30E509541FFEE493A4
:100D6400A360010ECF54C025E060A840B8E493A36B
:100D7400FAE493A3F8E493A3C8C582C8CAC583CA96
:100D8400F0A3C8C582C8CAC583CADFE9DEE780BE4E
:010E3B0000B6
:100C6600BB010689828A83E0225002E722BBFE028C
:090C7600E32289828A83E49322BF
:100C7F00BB010689828A83F0225002F722BBFE0154
:020C8F00F3224E
:100C9100F8BB010DE58229F582E5833AF583E8F099
:100CA100225006E92582C8F622BBFE05E92582C845
:020CB100F2222D
:100CB300BC000BBE0029EF8DF084FFADF022E4CC25
:100CC300F875F008EF2FFFEE33FEEC33FCEE9DECEE
:100CD300984005FCEE9DFE0FD5F0E9E4CEFD22ED34
:100CE300F8F5F0EE8420D21CFEADF075F008EF2F7E
:100CF300FFED33FD4007985006D5F0F222C398FD6F
:050D03000FD5F0EA220B
:00000001FF
